:1000000080311A2800002030850003308400000869
:10001000031918280530F800F701F70B0D28F80B25
:100020000C282E30F700F70B13281628800B0A280F
:1000300080317E287A302100990023008C018D01C7
:100040008E012200920191019401930121001E1062
:100050009E101E11003023008C008E0060308D0039
:1000600021001E169E161E139E171D1422001E111F
:100070009E1121008E1222008E120C30250093005A
:10008000940195011E109E10013096000030F8007A
:10009000063820009C00FF309B00250091010030B5
:1000A000F80021001D08833978049D000C30F7000A
:1000B000F70B58285B2800009D149D185D281C082C
:1000C000FA001B082000A1007A08A2002208F9000B
:1000D0002108F800F90CF80CF90CF80CF90C780868
:1000E00025009100F90C790C3039F7001308CF394D
:1000F000770493000A302000A300032825004F282E
:0201000063009A
:020000040001F9
:04000E00C43FFF1ECE
:00000001FF
;PIC16F1828
;CRC=B96A  CREATED="02-Tem-23 18:48"
